:1000000009C00EC00DC00CC00BC00AC009C008C09A
:1000100007C006C011241FBECFE9CDBF72D07FC07C
:10002000EFCFC19A2FEF83E893E0215080409040BA
:10003000E1F700C00000C1980895C29A2FEF83E84D
:1000400093E0215080409040E1F700C00000C2984A
:100050000895C39A2FEF83E893E0215080409040A9
:10006000E1F700C00000C3980895C49A2FEF83E819
:1000700093E0215080409040E1F700C00000C49818
:100080000895C59A2FEF83E893E021508040904077
:10009000E1F700C00000C5980895B099FECF87E64B
:1000A00091E00197F1F700C0000020E030E080E02F
:1000B00061E070E0B09B18C0AB01022E01C0440F9C
:1000C0000A94EAF7842BE0EFF0E03197F1F72F5F25
:1000D0003F4F2430310571F7823081F044F488239A
:1000E00059F0813051F0089540E050E0EBCF83307B
:1000F00031F0843029F0089594CF9FCFAACFB5CFA7
:10010000C0CFC09AB898C39887B3886387BB88B3B9
:10011000866088BB87B3866087BBBFDFFECFF8945D
:02012000FFCF0F
:00000001FF
