:1000000009C00EC00DC00CC00BC00AC009C008C09A
:1000100007C006C011241FBECFE9CDBF88D095C050
:10002000EFCFC1988FED9EE20197F1F700C000007D
:10003000C2988FED9EE20197F1F700C00000C19ACF
:100040008FED9EE20197F1F700C00000C29A08957B
:10005000C2988FED9EE20197F1F700C00000C198B1
:100060008FED9EE20197F1F700C00000C29A8FED7C
:100070009EE20197F1F700C00000C19A0895C39A6B
:100080002FEF83E893E0215080409040E1F700C0DB
:100090000000C3980895C49A2FEF83E893E021509D
:1000A00080409040E1F700C00000C4980895C59AD0
:1000B0002FEF83E893E0215080409040E1F700C0AB
:1000C0000000C5980895B099FECF87E691E00197AA
:1000D000F1F700C0000020E030E080E061E070E077
:1000E000B09B18C0AB01022E01C0440F0A94EAF77E
:1000F000842BE0EFF0E03197F1F72F5F3F4F243092
:10010000310571F7823081F044F4882359F0813051
:1001100051F0089540E050E0EBCF833031F084306F
:1001200029F008957ECF94CFAACFB5CFC0CFC09A83
:10013000B898C39887B3886387BB88B3866088BB49
:0E01400087B3866087BBBFDFFECFF894FFCF8A
:00000001FF
