:1000000009C021C07FC01FC01EC01DC01CC01BC0B6
:100010001AC019C011241FBECFE9CDBF10E0A0E661
:10002000B0E0E0E0F2E002C005900D92A636B10724
:10003000D9F720E0A6E6B0E001C01D92AE36B207C7
:10004000E1F7C6D0DBC0DCCFC298E0EFF0E031973B
:10005000F1F724E030E041E050E090E0BC0164239F
:100060007523672B61F0C29AE0EFF0E03197F1F76A
:10007000440F551F2150310989F7C29A0895C2983B
:10008000F3CFCF93DF9386B38170C82FD0E051F4C4
:1000900080916C0090916D00892B21F0B19909C07D
:1000A00081E0D2DFD0936D00C0936C00DF91CF91DF
:1000B000089580E0F6CF80916A0090916B00892BC3
:1000C00039F082E0C1DF10926B0010926A0008954F
:1000D0008091680090916900892B39F083E0B4DF4A
:1000E00010926900109268000895809166009091C6
:1000F0006700892B31F084E0A7DF1092670010922F
:10010000660008951F920F920FB60F9211242F933D
:100110003F934F935F936F937F938F939F93AF938F
:10012000BF93EF93FF9326B32870E22FF0E096B3CE
:100130009071692F70E086B38072482F50E0A091D3
:100140006400B0916500AB2B29F1211123C081E03F
:1001500090E090936B0080936A00F0936500E093C9
:100160006400709363006093620050936100409359
:100170006000FF91EF91BF91AF919F918F917F911F
:100180006F915F914F913F912F910F900FBE0F9004
:100190001F9018952091620030916300232B49F045
:1001A000911107C081E090E090936900809368000E
:1001B000D4CF2091600030916100232B71F2811126
:1001C000CCCF81E090E09093670080936600C5CF2C
:1001D00088B3836088BB87B38C7F87BBC29ABA9A87
:1001E00088B3886388BB87B3877C87BB80E28ABF7C
:1001F00088E385BB789445DF5EDFFDCFF894FFCFC1
:00000001FF
