:1000000009C021C058C01FC01EC01DC01CC01BC0DD
:100010001AC019C011241FBECFE9CDBF10E0A0E661
:10002000B0E0ECEAF1E002C005900D92A636B1070F
:10003000D9F720E0A6E6B0E001C01D92A836B207CD
:10004000E1F79DD0B1C0DCCFC298E0EFF0E031978E
:10005000F1F724E030E041E050E090E0BC0164239F
:100060007523672B61F0C29AE0EFF0E03197F1F76A
:10007000440F551F2150310989F7C29A0895C2983B
:10008000F3CFCF93DF9386B38170C82FD0E051F4C4
:100090008091660090916700892B21F0B19909C089
:1000A00081E0D2DFD0936700C0936600DF91CF91EB
:1000B000089580E0F6CF1F920F920FB60F92112491
:1000C000EF92FF920F931F932F933F934F935F9362
:1000D0006F937F938F939F93AF93BF93CF93DF9350
:1000E000EF93FF9326B32870022F10E096B3907120
:1000F000E92EF12C86B38072C82FD0E040916400C5
:1001000050916500452B39F1211125C082E09CDF1B
:100110001093650000936400F0926300E092620027
:10012000D0936100C0936000FF91EF91DF91CF9178
:10013000BF91AF919F918F917F916F915F914F91FF
:100140003F912F911F910F91FF90EF900F900FBE55
:100150000F901F9018952091620030916300232B1F
:1001600021F0911102C083E0D2CF20916000309144
:100170006100232B69F28111CBCF84E0C8CF88B313
:10018000836088BB87B38C7F87BBC29ABA9A88B3D7
:10019000886388BB87B3877C87BB80E28ABF88E39C
:0C01A00085BB78946EDFFECFF894FFCF93
:00000001FF
